:020000040000fa
:080000000002040000000000f2
:020000040000fa
:0400080018030000d9
:020000040000fa
:04000c00c802000026
:020000040000fa
:04001000da02000010
:020000040000fa
:04001400d002000016
:020000040000fa
:04001800e202000000
:020000040000fa
:04001c0018030000c5
:020000040000fa
:0400200018030000c1
:020000040000fa
:0400240018030000bd
:020000040000fa
:0400280018030000b9
:020000040000fa
:04002c0018030000b5
:020000040000fa
:0400300018030000b1
:020000040000fa
:04003400ea020000dc
:020000040000fa
:0400380018030000a9
:020000040000fa
:04003c0018030000a5
:020000040000fa
:0400400018030000a1
:020000040000fa
:04004400180300009d
:020000040000fa
:040048001803000099
:020000040000fa
:04004c001803000095
:020000040000fa
:040050001803000091
:020000040000fa
:04005400180300008d
:020000040000fa
:040058001803000089
:020000040000fa
:04005c001803000085
:020000040000fa
:040060001803000081
:020000040000fa
:04006400180300007d
:020000040000fa
:040068001803000079
:020000040000fa
:04006c001803000075
:020000040000fa
:040070001803000071
:020000040000fa
:04007400180300006d
:020000040000fa
:040078001803000069
:020000040000fa
:04007c001803000065
:020000040000fa
:040080001803000061
:020000040000fa
:04008400180300005d
:020000040000fa
:040088001803000059
:020000040000fa
:04008c001803000055
:020000040000fa
:040090001803000051
:020000040000fa
:04009400180300004d
:020000040000fa
:040098001803000049
:020000040000fa
:04009c001803000045
:020000040000fa
:0400a0001803000041
:020000040000fa
:0400a400180300003d
:020000040000fa
:0400a8001803000039
:020000040000fa
:0400ac001803000035
:020000040000fa
:0400b0001803000031
:020000040000fa
:0400b400180300002d
:020000040000fa
:0400b8001803000029
:020000040000fa
:0400bc001803000025
:020000040000fa
:0400c0001803000021
:020000040000fa
:0400c400180300001d
:020000040000fa
:0400c8001803000019
:020000040000fa
:0400cc001803000015
:020000040000fa
:0400d0001803000011
:020000040000fa
:0400d400180300000d
:020000040000fa
:0400d8001803000009
:020000040000fa
:0400dc001803000005
:020000040000fa
:0400e0001803000001
:020000040000fa
:0400e40018030000fd
:020000040000fa
:0400e80018030000f9
:020000040000fa
:0400ec0018030000f5
:020000040000fa
:0400f00018030000f1
:020000040000fa
:0400f40018030000ed
:020000040000fa
:0400f80018030000e9
:020000040000fa
:0400fc0018030000e5
:020000040000fa
:0401000018030000e0
:020000040000fa
:0401040018030000dc
:020000040000fa
:0401080018030000d8
:020000040000fa
:04010c0018030000d4
:020000040000fa
:0401100018030000d0
:020000040000fa
:0401140018030000cc
:020000040000fa
:0401180018030000c8
:020000040000fa
:04011c0018030000c4
:020000040000fa
:0401200018030000c0
:020000040000fa
:0401240018030000bc
:020000040000fa
:0401280018030000b8
:020000040000fa
:04012c0018030000b4
:020000040000fa
:0401300018030000b0
:020000040000fa
:0401340018030000ac
:020000040000fa
:0401380018030000a8
:020000040000fa
:04013c0018030000a4
:020000040000fa
:0401400018030000a0
:020000040000fa
:04014400180300009c
:020000040000fa
:040148001803000098
:020000040000fa
:0402080018030000d7
:020000040000fa
:04020c0018030000d3
:020000040000fa
:0402100018030000cf
:020000040000fa
:0402140018030000cb
:020000040000fa
:0402180018030000c7
:020000040000fa
:04021c0018030000c3
:020000040000fa
:0402200018030000bf
:020000040000fa
:0402240018030000bb
:020000040000fa
:0402280018030000b7
:020000040000fa
:04022c0018030000b3
:020000040000fa
:0402300018030000af
:020000040000fa
:0402340018030000ab
:020000040000fa
:0402380018030000a7
:020000040000fa
:04023c0018030000a3
:020000040000fa
:04024000180300009f
:020000040000fa
:04024400180300009b
:020000040000fa
:040248001803000097
:020000040000fa
:04024c001803000093
:020000040000fa
:04025000180300008f
:020000040000fa
:04025400180300008b
:020000040000fa
:040258001803000087
:020000040000fa
:04025c001803000083
:020000040000fa
:04026000180300007f
:020000040000fa
:04026400180300007b
:020000040000fa
:040268001803000077
:020000040000fa
:04026c001803000073
:020000040000fa
:04027000180300006f
:020000040000fa
:04027400180300006b
:020000040000fa
:040278001803000067
:020000040000fa
:04027c001803000063
:020000040000fa
:04028000180300005f
:020000040000fa
:04028400180300005b
:020000040000fa
:040288001803000057
:020000040000fa
:04028c001803000053
:020000040000fa
:04029000180300004f
:020000040000fa
:04029400180300004b
:020000040000fa
:040298001803000047
:020000040000fa
:04029c001803000043
:020000040000fa
:0402a000180300003f
:020000040000fa
:0402a400180300003b
:020000040000fa
:0402a8001803000037
:020000040000fa
:0402ac001803000033
:020000040000fa
:0402b000180300002f
:020000040000fa
:0402b400180300002b
:020000040000fa
:0402b8001803000027
:020000040000fa
:0402bc001803000023
:020000040000fa
:0402c000180300001f
:020000040000fa
:0402c400180300001b
:020000040000fa
:0402c8001803000017
:020000040000fa
:0402cc001803000013
:020000040000fa
:0402d000180300000f
:020000040000fa
:0402d400180300000b
:020000040000fa
:0402d8001803000007
:020000040000fa
:0402dc001803000003
:020000040000fa
:0402e00018030000ff
:020000040000fa
:0402e40018030000fb
:020000040000fa
:0402e80018030000f7
:020000040000fa
:0402ec0018030000f3
:020000040000fa
:0402f00018030000ef
:020000040000fa
:0402f40018030000eb
:020000040000fa
:0402f80018030000e7
:020000040000fa
:0402fc0018030000e3
:020000040000fa
:0403000018030000de
:020000040000fa
:0403040018030000da
:020000040000fa
:0403080018030000d6
:020000040000fa
:04030c0018030000d2
:020000040000fa
:0403100018030000ce
:020000040000fa
:0403140018030000ca
:020000040000fa
:0403180018030000c6
:020000040000fa
:04031c0018030000c2
:020000040000fa
:0403200018030000be
:020000040000fa
:0403240018030000ba
:020000040000fa
:0403280018030000b6
:020000040000fa
:04032c0018030000b2
:020000040000fa
:0403300018030000ae
:020000040000fa
:0403340018030000aa
:020000040000fa
:0403380018030000a6
:020000040000fa
:04033c0018030000a2
:020000040000fa
:04034000180300009e
:020000040000fa
:04034400180300009a
:020000040000fa
:040348001803000096
:020000040000fa
:10040000cf8720000e7f22000e0188000000000030
:10041000000020000000e000020032000001200087
:100420002002880014000700830007000000e0009d
:1004300003003a00e07220000100200002003700b3
:100440000000200001002000810f70000100320038
:1004500014000700000020000000e000020032004d
:100460000000020000000000ac07020000000000d5
:100470000040da000000fe004440a9000000200017
:100480000000e0000300320000002000a00188000e
:100490004440a800000006008a1f78008b1f7800e7
:1004a0000000060091018800800478000000eb0045
:1004b0001a003700e284440032a0b4009905ba0063
:1004c000e284440032a0b4009906ba00e2844400f9
:1004d00032a0b4000006eb00476fde00fd07b2005b
:1004e000636ce10003003a00ebff07000000eb0043
:1004f0000a003700606ce10004003a00005deb0088
:100500008b05e900fdff3e00040037006168e10053
:10051000010032000086eb000b00070019c7ba008b
:100520001905ba000e04e00003003a000a00e000da
:10053000e0ff3a0000000600fe07b2009e018800be
:100540008a047800f5ff3700395dba008b05e900b1
:100550000c003200295dba008b05e900080032006a
:100560000c00e00003003a00e284440032a0b40032
:10057000f5ff370019ddba008b05e900faff3a00f4
:100580008904e800e184440032a0b40000000600c1
:100590003600f8008020a9000000eb00540207009c
:1005a0003600f800560207008040a9001000200025
:1005b0004f0207003600f8008060a90020002000ec
:1005c0004b0207003600f8008080a90030002000b0
:1005d000470207003600f800809fbe00829fbe00e1
:1005e000849fbe00869fbe000000fa001300070033
:1005f000b0872000104078008040e800b0872000dd
:1006000001487800a087200011c0b300014878009d
:100610008460a9000080fa004f03be004f02be00b4
:100620004f01be004f00be003600f900004006003a
:0c0630000040da000000fe0000000500a1
:020000040000fa
:10063c000000fa0000c8bf000080fb00ec0f500067
:10064c0014003200ec0f500005003c00ea0f500083
:10065c000a003200eb0f50000b003200170037007d
:10066c00f50f500010003200f60f50001100320050
:10067c00f40f50000900320010003700b0c0b30076
:10068c00100007000d003700c0c0b30023000700a6
:10069c000a0037002e0007000800370050c1b300d5
:1006ac00080007000500370060c1b3001b000700fd
:1006bc00020037003f000700000000000080fa0035
:1006cc00000006000200fa00004f78001040800085
:1006dc001008880000c0eb000de8b7007700070099
:1006ec0008c8bf000040e80008e8b70008c8bf0011
:1006fc00e34f500007003a001e41780001802000b3
:10070c00824878000868ef00104080000000d1009b
:10071c00100888000080fa00000006000200fa00b1
:10072c00004f78000d68ef00640007001040800057
:10073c000000d100100888001e41780001802000c4
:10074c00824878000868ef000080fa00000006007c
:10075c000000fa00104080001008880008c8bf0094
:10076c000080fb0021812000614078000de8b7007b
:10077c000dc8bf006f4060000de8b7004f000700c8
:10078c0008c8bf000040e80008e8b70008c8bf0070
:10079c00e34f500005003a0040c1b30000e8b70039
:1007ac000868ef000468ef000568ef000080fa00ad
:1007bc00000006000000fa0009c8bf008080fb00a2
:1007cc0005c8bf000080fb00c508dd0000804000ac
:1007dc0051812000614078000be8b7000bc8bf00c6
:1007ec008080fb0004c8bf000080fb000088de0096
:1007fc0000407800614060000ce8b7000cc8bf00f6
:10080c008080fb0008c8bf000080fb000008dd00f2
:10081c00004078000de8b7002800070008c8bf00aa
:10082c000040e80008e8b70004c8bf000040e8003a
:10083c0004e8b700020007000080fa000000060080
:10084c000000fa0004c8bf00e84f500013003a0043
:10085c0005c8bf000040e80005e8b7000468ef00d9
:10086c00518020009140780000c2b30080cf50002e
:10087c000a003a000568ef00a0c0b30000e8b7001a
:10088c000868ef0010c0b3000ae8b70009c8bf0041
:10089c0011c0b30000c0500009e8b70008c8bf0081
:1008ac00e44f500003003a0040c1b30000e8b70029
:1008bc000868ef000080fa00000006000000fa0053
:1008cc000dc8bf0061406000614060006140600085
:1008dc000080fb00610060004600dd0062168000b5
:1008ec00f1fb2f0081006100010070006016880090
:1008fc000dc8bf000080fb000000d1000040780054
:10090c006140600061406000614060000080fb005d
:10091c00610060004700dd0062168000f1f72f00d7
:10092c008100610001007000601688000dc8bf00d6
:10093c000080fb004200de00004078006140600057
:10094c0061406000614060000080fb00610060005d
:10095c004800dd0062168000f1ef2f00810061007d
:10096c0001007000601688000dc8bf000080fb00fd
:10097c004300de0000407800614060006140600090
:10098c00614060000080fb00610060004900dd00f8
:10099c0062168000f1df2f00810061000100700001
:1009ac00601688000080fa00000006000000fa00c3
:1009bc00601680004600de006140600080407800d8
:1009cc00601680004700de0061406000004040007f
:1009dc0080c04000601680004800de00614060006e
:1009ec0000417800200020000010dd0080c0400095
:1009fc00601680004900de00614060000041780014
:100a0c00300020000010dd0000c040000ee8b700f0
:100a1c000080fa00000006000000fa000500070044
:100a2c000b00070060872000270007000080fa00f9
:100a3c00000006000000fa00c8c2a900c8e2a90024
:100a4c00c902a900c922a9000080fa000000060012
:100a5c000000fa000021ef00e038200010088800a8
:100a6c0021088000f0fc2f00008060000040a000f6
:100a7c002008880005e1a9008460a9009460a90001
:100a8c000080fa00000006000200fa00000f780057
:100a9c000021ef001e0078000000400010088800c4
:100aac0021088000f0fc2f00008060000040a000b6
:100abc002008880005e1a9008460a9009460a900c1
:100acc000080fa00000006000200fa00000f780017
:100adc001e007800904078002081200001487800aa
:100aec001e00e8009040780030812000014878001a
:100afc001e80e8009040780040812000014878007a
:100b0c000080fa00000006000000fa0005e1a800d1
:100b1c008460a9009460a80021058000f0ff2800e3
:100b2c008080600000002300010070002005880018
:100b3c00a0c0b30000e8b7000080fa000000060077
:100b4c000000fa0005e1a9008460a9009460a900e6
:100b5c000080fa00000006000000fa00a0c0b300fc
:100b6c0000e8b7000868ef0010408000100888000b
:100b7c000080fa00000006000000fa000021ef00df
:100b8c00e0382000100888000001280020088800a8
:100b9c008460a9009460a800a08720008040eb002e
:100bac00014878000080fa00000006000200fa00fc
:100bbc00000f78009e00780011088800a0872000a4
:100bcc008040eb00014878000080fa00000006002d
:100bdc000000fa00100880000080fa0000000600f7
:100bec000200fa00000f78009e00780001088800cf
:100bfc00a08720008040eb00014878000080fa00bc
:100c0c00000006000000fa00000880000080fa00d6
:100c1c00000006000000fa000080fa000000060048
:100c2c000000fa00a08720008040eb00014878000b
:100c3c009460a80005e1a8000080fa0000000600fe
:100c4c000000fa0005e1a9009460a9000080fa00f8
:100c5c00000006000200fa00a0872000104f780068
:100c6c001e4078000004e00003003200a087200042
:100c7c008040eb00014878001e4078000080fa00ac
:100c8c00000006000000fa00b08720001040780039
:100c9c000080fb000080fa00000006000000fa0053
:100cac00b08720008040eb00014878000080fa00fb
:100cbc00000006000400fa00100798000000eb008a
:100ccc00000f78000ac8bf000004e00014003200d6
:100cdc000000eb00000f78000d00370009c8bf00c2
:100cec000080fb00610010009e0078001e01900047
:100cfc008100410091407800528120004500dd00c8
:100d0c001e00400000004100014878001e0fe80062
:100d1c001e007800ff0f5000f0ff34000a68ef004f
:100d2c000080fa00000006000400fa00100798008a
:100d3c000000eb00000f78000000eb00000f7800c3
:100d4c000c00370009c8bf000080fb009e00780033
:100d5c001e019000810041009140780052812000da
:100d6c004500dd001e0040000000410001487800f5
:100d7c001e0fe8001e007800ff0f5000f1ff34003a
:100d8c000080fa00000006000000fa0000002300ba
:100d9c00203a88004827ef0012002000800720002e
:100dac00a109200033742000804978008149780023
:100dbc008249780012002000600420007105200098
:100dcc00237420008049780081497800824978009a
:100ddc0000000000103a8000610060000000e0009c
:100dec00fcff3a000080fa00000006000000fa0048
:100dfc0000002300203a88004827ef001200200052
:100e0c0080072000a109200033742000804978005d
:100e1c00814978008249780012002000600420008b
:100e2c0071052000237420008049780081497800e6
:100e3c008249780000000000103a800061006000d8
:100e4c000000e000fcff3a000080fa000000060001
:020000040000fa
:100e5c00760800000400000002000000ff33cc0004
:100e6c0000000000560800002000000000000000f8
:100e7c00100800000200000002000000ffff00004c
:100e8c007a080000020000000000000012080000b8
:100e9c0044000000000000000008000010000000ea
:080eac0000000000000000003e
:020000040000fa
:100eb4000000fa00c422ef00cc22ef0070012000f1
:100ec40000168800f0c32f00401688006820ef0049
:100ed4006a20ef00c622ef00ce22ef00c0002000ff
:100ee400601988000080fa0000000600000f7800f6
:100ef4009e00780081408800ffff37000000fa0060
:100f04006085200080077800e086200000018800ca
:100f14000080fa00000006000000fa0021058000ad
:100f2400f0ff28000080600000c0a00020058800b9
:100f34000080fa00000006000000fa00dcff070051
:100f4400f5ff0700abff07000dff07000080fa0064
:100f5400000006000000fa00f7ff0700b0fe0700db
:080f6400ebfe0700ffff370060
:020000040000fa
:04aff8007ff80000de
:020000040000fa
:04affc007f3f000093
:00000001FF
